:020000040800F2
:10000000A806002089010008811000080D0B0008D7
:100010007D100008EB0200083B1300080000000000
:10002000000000000000000000000000CF110008E8
:100030001103000800000000CD110008291200087B
:10004000A3010008A3010008A3010008A301000800
:10005000A3010008A3010008A3010008A3010008F0
:10006000A3010008A3010008A3010008A3010008E0
:10007000A3010008A3010008A3010008A3010008D0
:10008000A3010008A3010008A3010008A3010008C0
:10009000A3010008A3010008A3010008A3010008B0
:1000A000A3010008A3010008A3010008A3010008A0
:1000B000A3010008A3010008A3010008A301000890
:1000C000A3010008A3010008A3010008A301000880
:1000D000A3010008A3010008A3010008A301000870
:1000E000A3010008A3010008A301000800F002F822
:1000F00000F03AF80AA090E8000C82448344AAF188
:100100000107DA4501D100F02FF8AFF2090EBAE885
:100110000F0013F0010F18BFFB1A43F0010318473B
:10012000BC130000DC130000103A24BF78C878C16B
:10013000FAD8520724BF30C830C144BF04680C60ED
:10014000704700000023002400250026103A28BF35
:1001500078C1FBD8520728BF30C148BF0B60704739
:100160001FB51FBD10B510BD00F058F81146FFF7C0
:10017000F7FF01F001F900F076F803B4FFF7F2FFA2
:1001800003BC00F07DF8000009488047094800479B
:10019000FEE7FEE7FEE7FEE7FEE7FEE7FEE7FEE737
:1001A000FEE7FEE704480549054A064B7047000094
:1001B00039130008ED000008A8000020A806002060
:1001C000A8020020A80200204FF0000200B513464C
:1001D00094469646203922BFA0E80C50A0E80C5067
:1001E000B1F12001BFF4F7AF090728BFA0E80C5018
:1001F00048BF0CC05DF804EB890028BF40F8042B11
:1002000008BF704748BF20F8022B11F0804F18BF7D
:1002100000F8012B7047704770477047754600F033
:100220002BF8AE4605006946534620F00700854688
:1002300018B020B5FFF7B6FFBDE820404FF000062C
:100240004FF000074FF000084FF0000B21F00701BE
:10025000AC46ACE8C009ACE8C009ACE8C009ACE801
:10026000C0098D46704710B50446AFF300802046A4
:10027000BDE81040FFF781BF0048704744000020F0
:1002800001491820ABBEFEE726000200704770B59A
:10029000044600252068806800F0010018B320683B
:1002A000806820F001002168886000F04DFB054661
:1002B00013E000F049FB401B02280ED9206880683B
:1002C00000F0010048B1A06A40F01000A062E06AAE
:1002D00040F00100E062012070BD2068806800F0FD
:1002E00001000028E5D10020F6E700BFFEE700008E
:1002F00010B50648047800BF0F21204600F068FFC3
:10030000601EC0B2041EF7D110BD00000000002026
:100310007047704738B5024600230020009000BFA8
:1003200092F82400012801D1022038BD012082F872
:10033000240000BF4868072812D21068406B0C796F
:10034000641E04EB84051F24AC40A0430D796D1E90
:1003500005EB85050C68AC4020431468606327E01A
:1003600048680D2812D21068006B0C79E41F04EB6A
:1003700084051F24AC40A0430D79ED1F05EB8505D6
:100380000C68AC4020431468206311E01068C06A18
:100390000C790D3C04EB84051F24AC40A0430D797F
:1003A0000D3D05EB85050C68AC4020431468E06208
:1003B00008680A2812D31068C0680C780A3C04EB5D
:1003C00044050724AC40A0430D780A3D05EB4505E4
:1003D0008C68AC4020431468E0600FE0106800694E
:1003E0000C7804EB44050724AC40A0430D7805EBE2
:1003F00045058C68AC4020431468206108681028CB
:1004000002D00868112827D1174C1068A0421ED1CD
:100410001068806800F40000F0B91068806840F44B
:1004200000001468A0600868102815D10F48006803
:100430000F4CB0FBF4F000EB80004000009002E0B5
:100440000098401E009000980028F9D104E0906ABE
:1004500040F020009062012300BF002082F82400B9
:1004600000BF184661E70000002401401000002092
:1004700040420F002DE9F0410446002700250026E8
:10048000A84614B90120BDE8F081A06810B1207D14
:1004900000B100BFA06A30B90020E06284F82400F7
:1004A000204600F089F82046FFF7F1FE0746A06AD3
:1004B00000F01000002873D1002F71D1A06A20F441
:1004C000885040F00200A062E16960680843217B27
:1004D00040EA41000643A068B0F5807F02D0A068E2
:1004E000012802D14FF4807000E000200543207DF8
:1004F000012811D1207B38B9A069401E4FF400615A
:1005000041EA4030054307E0A06A40F02000A062C5
:10051000E06A40F00100E0622068406820F4694031
:10052000284321684860206880682149084030439A
:1005300021688860A068B0F5807F02D0A06801289B
:1005400002D14FF4807000E00020B0F5807F03D12D
:10055000208A401E4FEA00582068C06A20F47000CC
:1005600040EA08002168C862206880681149084094
:10057000B04208D10020E062A06A20F0020040F002
:100580000100A06211E0A06A20F0020040F010001B
:10059000A062E06A40F00100E062012705E0FFE7A9
:1005A000A06A40F01000A062012738466BE7000007
:1005B000FDF7E1FFFE0E1FFF10B586B004460020D8
:1005C000029003900490059014492068884222D13B
:1005D00000BF1348806940F4806011498861084673
:1005E000806900F48060019000BF00BF00BF084632
:1005F000806940F0040088610846806900F00400CA
:10060000019000BF00BF012002900320039002A9C7
:10061000044800F009F806B010BD000000280140B1
:1006200000100240000801402DE9F847034600226F
:1006300094466EE14FF0010808FA02F4D1F8008008
:1006400008EA0400A0427DD1DFF8DCA2D1F80480E2
:10065000A8EB0A09D0453AD014DCB8F1030F50D00A
:1006600009DCB8F1000F31D0B8F1010F1CD0B8F19E
:10067000020F49D120E0B8F1110F18D0B8F1120FD4
:1006800042D11EE0B9F5881F25D006DCB9F5803FC0
:1006900020D0B9F5801F37D11AE0B9F5001F18D066
:1006A000B9F5041F30D117E0D1F80CC02DE0D1F816
:1006B0000C8008F1040C28E0D1F80C8008F1080C3B
:1006C00023E0D1F80C8008F10C0C1EE000BF00BF45
:1006D00000BF00BF00BF00BFD1F80880B8F1000F15
:1006E00002D14FF0040C0BE0D1F80880B8F1010FF3
:1006F00003D14FF0080C1C6102E04FF0080C5C6164
:1007000003E04FF0000C00E000BF00BFFF2801D85D
:10071000984601E003F104084646FF2802D84FEA54
:10072000820803E0A2F108084FEA88084746D6F895
:1007300000804FF00F0909FA07F928EA09080CFAB6
:1007400007F900E088E048EA0908C6F80080D1F817
:10075000048008F08058B8F1805F7DD100BFDFF8D9
:10076000CC81D8F8188048F00108DFF8C091C9F8AA
:100770001880C846D8F8188008F00108CDF8008025
:1007800000BF00BF4FEAB9384FEA920958F8295024
:100790004FEA82784FEA18794FF00F0808FA09F803
:1007A00025EA0805DFF88881434502D14FF00008AB
:1007B00016E0DFF88081434502D14FF001080FE0D9
:1007C000DFF87481434502D14FF0020808E0DFF8FA
:1007D0006C81434502D14FF0030801E04FF004085B
:1007E0004FEA82794FEA197908FA09F848EA0505CB
:1007F000DFF84C814FEA920948F82950D1F804807B
:1008000008F48038B8F5803F0AD1DFF83881D8F88D
:10081000008048EA0008DFF82C91C9F8008009E060
:10082000DFF82081D8F8008028EA0008DFF814916A
:10083000C9F80080D1F8048008F40038B8F5003F0A
:1008400010D1DFF8008108F10408D8F8008048EAE8
:100850000008DFF8F09000E05AE009F10409C9F857
:1008600000800DE0DFF8DC8008F10408D8F8008093
:1008700028EA0008DFF8CC9009F10409C9F80080E3
:10088000D1F8048008F48018B8F5801F0ED1DFF885
:10089000B48008F10808D8F8008048EA0008DFF8BA
:1008A000A49009F10809C9F800800DE0DFF89480F0
:1008B00008F10808D8F8008028EA0008DFF88490DA
:1008C00009F10809C9F80080D1F8048008F400187B
:1008D000B8F5001F0ED1DFF86C8008F10C08D8F8CD
:1008E000008048EA0008DFF85C9009F10C09C9F8BB
:1008F00000800DE0DFF84C8008F10C08D8F800808B
:1009000028EA0008DFF83C9009F10C09C9F80080DA
:10091000521CD1F8008028FA02F8B8F1000F7FF4D9
:1009200089AEBDE8F88700000000111000100240F9
:1009300000080140000C014000100140001401407B
:1009400008000140000401400148006870470000B1
:10095000040000200348006803490978084401495D
:1009600008607047040000200C00002010B5084803
:10097000006840F0100006490860032000F098F875
:10098000002000F007F800F02BF8002010BD000058
:100990000020024070B504460E4800784FF47A718A
:1009A000B1FBF0F00C490968B1FBF0F5284600F006
:1009B00093F808B1012070BD102C07D20022214607
:1009C000501E00F037F80548046001E00120F2E70E
:1009D0000020F0E70C00002010000020080000209C
:1009E00008B500BF1148806940F001000F498861D7
:1009F0000846806900F00100009000BF00BF00BF02
:100A00000846C06940F08050C8610846C06900F0DF
:100A10008050009000BF00BF00BF0549486820F02B
:100A2000E06040F00070486000BF08BD0010024068
:100A3000000001402DE9F05F80460D461646002774
:100A400000F07EFC074639462A46334601F007008F
:100A5000C0F1070ABAF1040F02D94FF0040A01E00D
:100A6000C0F1070AD14600F1040ABAF1070F02D219
:100A70004FF0000A01E0A0F1030AD4464FF0010A4A
:100A80000AFA09FAAAF1010A0AEA020A0AFA0CFAAF
:100A90004FF0010B0BFA0CFBABF1010B0BEA030B54
:100AA0004AEA0B042146404600F052FCBDE8F09FA4
:100AB00000BF00F00702064B19684FF6FF0319400C
:100AC000044B0B4343EA0221014B196000BF7047FE
:100AD0000CED00E00000FA0570B504462546681EDE
:100AE000B0F1807F01D301200FE0681E4FF0E021BC
:100AF00048610F214FF0FF3000F02AFC00204FF03A
:100B0000E021886107200861002070BD00BFFEE77A
:100B100000B5FF21092000F05BFB09480078401E6A
:100B2000C1B20B2000F054FB06210A2000F050FB5C
:100B300001210C2000F04CFBFFF7DAFB00BD0000A8
:100B4000000000202DE9F04104460D4600260D4826
:100B500000F043F807460C4800F03FF807436FB930
:100B6000286830B1606820F470202968084360600C
:100B700005E0606820F47020606000E001263046E7
:100B8000BDE8F0810024014000280140816841F067
:100B900001018160704770B504460D46002620466D
:100BA00000F01BF860B9606820F480706968084341
:100BB0006060A06820F4006029680843A06000E03D
:100BC0000126304670BD01460868C0F340007047FA
:100BD00001468868C0F3800070470146886800F0CD
:100BE0000100704770B505460C460026606800B1EC
:100BF00000BF2846FFF7F1FF10BB606840B1D4E9A1
:100C000001010843696821F468410843686005E010
:100C1000686820F46840616808436860E16820689B
:100C2000084321690843A968074A11400843A8609E
:100C30006068E96A21F470010143E96200BF00E0E5
:100C40000126304670BD0000FDFEF1FF816841F4D1
:100C5000A00181607047816841F0040181607047A4
:100C600008B5054989690143034A916111468969BB
:100C70000140009100BF08BD001002402DE9F04185
:100C800002460B461868C0F30F2595FAA5F0B0FA96
:100C900080F480E00120A040284000287AD0082C71
:100CA00004D240F2011000FA04F106E0A4F10800B9
:100CB0004FF00116864046F08061586808280ED132
:100CC0001869D66826EA11260F0A97FAA7F7B7FA25
:100CD00087F700FA07F73E43D66000BF00BF5868A9
:100CE00002EB116691FAA1FCBCFA8CFC4FEA8C086D
:100CF0004FF00F0C0CFA08FC376827EA0C0791FA42
:100D0000A1FCBCFA8CFC4FEA8C0C00FA0CFC47EA04
:100D10000C07376000BF5868012802D058680928BE
:100D200038D1986802EB116691FAA1FCBCFA8CFCF0
:100D30004FEA8C084FF0030C0CFA08FC376827EADE
:100D40000C0791FAA1FCBCFA8CFC4FEA8C0C00FA5F
:100D50000CFC47EA0C07376000BFD86802EB11664D
:100D600091FAA1FCBCFA8CFC4FEA8C084FF0040C01
:100D70000CFA08FC376827EA0C0791FAA1FCBCFAC8
:100D80008CFC4FEA8C0C00FA0CFC47EA0C0737602D
:100D900000BF00BF641C25FA04F000287FF47AAF7E
:100DA000BDE8F081C1F30F224261704730B50246C1
:100DB000012300BF1068C0F3801038BBD1E90004E4
:100DC00020438C682043CC6820430C6920434C6945
:100DD00020438C692043CC6920430C6A204314686B
:100DE0004FF6BF75AC4320431060506820F00400FC
:100DF0004C6940EA14405060086AB0F5005F04D1C5
:100E0000486A84B2146100BF00BF0023184630BD99
:100E100001490860704700001000002008B54FF03D
:100E2000E0210969009100BF411C01B1401C06E0AE
:100E30004FF0E021096901F4803101B1401E002822
:100E4000F6D108BD70B58EB000200C900D900B90BF
:100E5000142106A8FFF7B8F9142101A8FFF7B4F987
:100E60004FF40070FFF7FCFE0420FFF7F9FE40F29C
:100E7000022001900020029001A93248FFF7FEFEF7
:100E800000200C900D900CA92F48FFF784FE002045
:100E90000B900BA92C48FFF755FE4FF460200690ED
:100EA00000200790089009900A9006A92648FFF7AD
:100EB00099FE25494815254A00F440744FF44075C1
:100EC00095FAA5F5B5FA85F5EC4001F12C0505EB91
:100ED00084031C6800F01F061F25B540AC4302F0D8
:100EE0001F0500F01F06B5402C431C6000BF1046D4
:100EF000002200F00074450695FAA5F5B5FA85F5CF
:100F0000EC4001F10C0505EB84031C6800F0F8755A
:100F10004FF0F87696FAA6F6B6FA86F6F54007266A
:100F2000AE40B44300F0F8754FF0F87696FAA6F6A6
:100F3000B6FA86F6F54002FA05F52C431C6000BFB0
:100F40000EB070BD000801400024014001003002D5
:100F50000EB50020009001900290124812490860DE
:100F6000002111488160017301754FF46021C16156
:100F700000200D49486001210B480161FFF77AFA12
:100F800008B1FFF7C6F90020009001200190002071
:100F9000029069460448FFF7BDF908B1FFF7B9F9B7
:100FA0000EBD0000002801401400002000B585B0EF
:100FB00014216846FFF708F92020FFF751FE0420AE
:100FC000FFF74EFE08490948FFF7ECFE064800907F
:100FD0000120019002900020039069460348FFF72A
:100FE0004DFE05B000BD00000100010400080140F5
:100FF00000B58FB0282105A8FFF7E6F81421684650
:10100000FFF7E2F84FF48050FFF72AFE0420FFF7C5
:1010100027FE4AF2A00000900920019003200290D0
:101020000020039069461348FFF728FE44F2400071
:1010300000900420019069460E48FFF71FFE002033
:1010400005904FF4827006904FF4006007900220E4
:1010500008900120099040020A9018200B9000206F
:101060000C900D900A200E9005A90348FFF79EFEF4
:101070000FB000BD000801400030014000BFFEE796
:1010800000BFFEE771B500250098002803DA0125AE
:1010900000984042009004240098B0F57A7F03DA6B
:1010A0000F21082000F094F80098642803DA0F213B
:1010B000072000F08DF800980A2803DA0F21062097
:1010C00000F086F800BF0A21009890FBF1F201FBC6
:1010D0001200C6B2611CC9B20C460846314600F087
:1010E00077F80A21009890FBF1F000900098002812
:1010F000E9D125B1611CC8B20A2100F069F878BDB8
:1011000071B500250098002803DA012500984042B7
:10111000009000240098B0F57A7F03DA0F210420B4
:1011200000F056F80098642803DA0F21032000F03D
:101130004FF800980A2803DA0F21022000F048F83F
:1011400000BF0A21009890FBF1F201FB1200C6B229
:10115000611CC9B20C460846314600F039F80A2134
:10116000009890FBF1F0009000980028E9D125B19B
:10117000611CC8B20A2100F02BF878BD71B50025BA
:101180000098002803DA01250098404200900024CE
:1011900000BF0A21009890FBF1F201FB1200C6B2D9
:1011A000611CC9B20C460846314600F011F80A210C
:1011B000009890FBF1F0009000980028E9D125B14B
:1011C000611CC8B20A2100F003F878BD704770476F
:1011D00010B5124AC2F30F23114C636100BF00BF68
:1011E00000BF104A9268C2F34002002AF8D041EAD8
:1011F00000220C4BDA6000BF00BF00BF094A9268B2
:1012000002F00102002AF8D0064AD268034AC2F36B
:101210000F23034C236100BF10BD00000100010437
:10122000000801400030014010B5FFF793FB10BDEE
:1012300010B502203D49096821F0070101433B4AEE
:10124000116000BF00BF00BF3848006800F0070011
:101250000228F8D100BF3648006840F48030344995
:10126000086000BF00BF00BF31480068C0F34040C5
:101270000028F8D04FF480304FF4E0112C4A526827
:1012800022F47C1200F440330B431A43284B5A607B
:1012900000BF00BF1846006840F080701946086023
:1012A00000BF00BF00BF22480068C0F340600028B4
:1012B000F8D000201E49496821F0F00101431C4A82
:1012C000516000BF10151146496821F4E0610143E7
:1012D000516000BF00201146496821F4605101436C
:1012E000516000BF02201146496821F0030101430B
:1012F000516000BF00BF00BF0D48406800F00C0007
:101300000828F8D10B48FFF783FD0020FFF742FBC8
:1013100008B1FEF7FEFF4FF400400549496821F48B
:1013200040410143024A516000BF10BD002002400D
:101330000010024000A24A04704700BFFEE7000010
:1013400002480068C0F30220704700000CED00E086
:1013500010B5002804DB0A07130E054A135406E0F3
:101360000A07140E034A00F00F031B1FD45410BDCC
:1013700000E400E018ED00E086B000200590FFF7E3
:10138000F5FAFFF755FFFFF711FEFFF75BFDFFF7DB
:101390002FFEFFF7DDFD4C48FFF7F8FB20200590FE
:1013A00002E00598401E059005980028F9D14648AE
:1013B000FFF751FC00BF4448FFF70AFC0028FAD1B0
:1013C0004248FFF7E3FB2020059002E00598401E0D
:1013D000059005980028F9D13C48FFF73CFC00BF78
:1013E0003A48FFF7F5FB0028FAD100246420FFF704
:1013F00015FD3748C0F30F21364A116100BF014681
:101400001046FFF7CFFC00BF3348006840F04000B3
:101410003149086000BFFFF77BFB0020FFF7AEFEFD
:101420004FF4FA60FFF7FAFC4DE0601C84B22648E6
:10143000FFF70CFC00BF2448FFF7C5FB0028FAD0DB
:1014400000BF6FF002002049086000BF00BF0846DF
:10145000C06C80B20490BDF8100040F6CB41484308
:1014600040F6FF71B0FBF1F080B20390BDF80C00C4
:10147000FFF708FE1548FFF7E9FB00BF1348FFF729
:10148000A2FB0028FAD000BF6FF002000F490860ED
:1014900000BF00BF0846C06C80B20290BDF80800D3
:1014A00040F6CB41484340F6FF71B0FBF1F080B20B
:1014B0000190BDF80400FFF723FE4FF47A70FFF7A8
:1014C000ADFCFEF715FFB0E7002401400028014005
:1014D000010001040008014000300140FC14000834
:1014E000000000201400000028010008101500086A
:1014F00014000020940600004401000808000000C9
:101500000000000010000000010000000024F400B2
:04000005080000ED02
:00000001FF
